:020000020000FC
:100000000FEF0DBF18E01EBF02671141644808637F
:100010000040200C1A051838F0E8F0936100F4E075
:10002000F09361000E9467000FE104B90FEF0AB975
:1000300000E007B913E018B900E00093C100A0E0A8
:10004000C0E091E060E070E0D0E0E0E00E9481007C
:1000500005B30130E9F701E006BDA89A43954130A8
:10006000B9F770E0C90F8A2F603011F080E18A0F74
:100070008C1711F00C944600603021F060E0C0E075
:100080000C94500061E0C0E10C945000603029F005
:10009000CF3131F4C0E10C945000C03109F4C0E01C
:1000A00073957436E9F77727C5B9442756B150FDE3
:1000B0000E946E0056B150FF0E947A0056B151FD69
:1000C0000E94740056B151FF0E948B00C1CF00E026
:1000D00004BD05E005BD04E606BD089500E0D1E0DD
:1000E00003950436E9F7089500E0E1E0039504364E
:1000F000E9F70895D13029F4D0E0A395A4FD0E943A
:1001000089000A2FF0E0E8E0E00FB491BBB9C5B96F
:100110000895A0E00895E13021F4E0E0AA950CF400
:10012000AFE00A2FF0E0E8E0E00FB491BBB9C5B949
:02013000089530
:00000001FF
